{
  "contractName": "TokenBRServiceProviderChain",
  "abi": [
    {
      "inputs": [
        {
          "components": [
            {
              "internalType": "address payable",
              "name": "walletAddress",
              "type": "address"
            },
            {
              "internalType": "string",
              "name": "cnpj",
              "type": "string"
            }
          ],
          "internalType": "struct TokenBRServiceProviderChain.Government",
          "name": "contractOwner_",
          "type": "tuple"
        }
      ],
      "stateMutability": "nonpayable",
      "type": "constructor"
    },
    {
      "inputs": [
        {
          "internalType": "address",
          "name": "",
          "type": "address"
        }
      ],
      "name": "serviceContracts",
      "outputs": [
        {
          "internalType": "address payable",
          "name": "walletAddress",
          "type": "address"
        },
        {
          "internalType": "string",
          "name": "status",
          "type": "string"
        },
        {
          "internalType": "string",
          "name": "name",
          "type": "string"
        },
        {
          "internalType": "string",
          "name": "cnpjProvider",
          "type": "string"
        },
        {
          "internalType": "uint256",
          "name": "start",
          "type": "uint256"
        },
        {
          "internalType": "uint256",
          "name": "end",
          "type": "uint256"
        },
        {
          "internalType": "address payable",
          "name": "bankEscrowAccount",
          "type": "address"
        },
        {
          "internalType": "string",
          "name": "bankEscrowAccountCnpj",
          "type": "string"
        },
        {
          "internalType": "string",
          "name": "bankEscrowAccountName",
          "type": "string"
        },
        {
          "internalType": "uint256",
          "name": "bankEscrowAccountBalance",
          "type": "uint256"
        }
      ],
      "stateMutability": "view",
      "type": "function",
      "constant": true
    },
    {
      "inputs": [
        {
          "internalType": "address",
          "name": "",
          "type": "address"
        }
      ],
      "name": "serviceProviders",
      "outputs": [
        {
          "internalType": "address payable",
          "name": "walletAddress",
          "type": "address"
        },
        {
          "internalType": "uint256",
          "name": "balance",
          "type": "uint256"
        },
        {
          "internalType": "string",
          "name": "cnpj",
          "type": "string"
        },
        {
          "internalType": "string",
          "name": "companyName",
          "type": "string"
        },
        {
          "internalType": "string",
          "name": "status",
          "type": "string"
        },
        {
          "internalType": "uint256",
          "name": "start",
          "type": "uint256"
        },
        {
          "internalType": "uint256",
          "name": "end",
          "type": "uint256"
        }
      ],
      "stateMutability": "view",
      "type": "function",
      "constant": true
    },
    {
      "inputs": [
        {
          "internalType": "address payable",
          "name": "walletAddress",
          "type": "address"
        },
        {
          "internalType": "string",
          "name": "name",
          "type": "string"
        },
        {
          "internalType": "string",
          "name": "cnpjProvider",
          "type": "string"
        },
        {
          "internalType": "uint256",
          "name": "start",
          "type": "uint256"
        },
        {
          "internalType": "uint256",
          "name": "end",
          "type": "uint256"
        },
        {
          "internalType": "address payable",
          "name": "bankEscrowAccount",
          "type": "address"
        },
        {
          "internalType": "string",
          "name": "bankEscrowAccountCnpj",
          "type": "string"
        },
        {
          "internalType": "string",
          "name": "bankEscrowAccountName",
          "type": "string"
        }
      ],
      "name": "addContract",
      "outputs": [],
      "stateMutability": "payable",
      "type": "function",
      "payable": true
    },
    {
      "inputs": [
        {
          "internalType": "address payable",
          "name": "walletAddress",
          "type": "address"
        },
        {
          "internalType": "string",
          "name": "cnpj",
          "type": "string"
        },
        {
          "internalType": "string",
          "name": "companyName",
          "type": "string"
        }
      ],
      "name": "addServiceProvider",
      "outputs": [],
      "stateMutability": "nonpayable",
      "type": "function"
    },
    {
      "inputs": [
        {
          "internalType": "address",
          "name": "walletAddress",
          "type": "address"
        }
      ],
      "name": "getServiceProvider",
      "outputs": [
        {
          "internalType": "string",
          "name": "cnpj",
          "type": "string"
        },
        {
          "internalType": "uint256",
          "name": "balance",
          "type": "uint256"
        },
        {
          "internalType": "string",
          "name": "companyName",
          "type": "string"
        },
        {
          "internalType": "string",
          "name": "status",
          "type": "string"
        },
        {
          "internalType": "uint256",
          "name": "start",
          "type": "uint256"
        },
        {
          "internalType": "uint256",
          "name": "end",
          "type": "uint256"
        }
      ],
      "stateMutability": "view",
      "type": "function",
      "constant": true
    },
    {
      "inputs": [
        {
          "internalType": "address",
          "name": "serviceProviderAddress",
          "type": "address"
        },
        {
          "internalType": "uint256",
          "name": "estimatedEndDate",
          "type": "uint256"
        }
      ],
      "name": "initiateService",
      "outputs": [],
      "stateMutability": "nonpayable",
      "type": "function"
    },
    {
      "inputs": [
        {
          "internalType": "address payable",
          "name": "contractWalletAddress",
          "type": "address"
        },
        {
          "internalType": "address payable",
          "name": "serviceProviderAddress",
          "type": "address"
        }
      ],
      "name": "finishService",
      "outputs": [],
      "stateMutability": "nonpayable",
      "type": "function"
    },
    {
      "inputs": [
        {
          "internalType": "address",
          "name": "walletAddress",
          "type": "address"
        }
      ],
      "name": "isExpired",
      "outputs": [],
      "stateMutability": "view",
      "type": "function",
      "constant": true
    },
    {
      "inputs": [
        {
          "internalType": "address",
          "name": "walletAddress",
          "type": "address"
        }
      ],
      "name": "getServiceContractStatus",
      "outputs": [
        {
          "internalType": "string",
          "name": "status",
          "type": "string"
        }
      ],
      "stateMutability": "view",
      "type": "function",
      "constant": true
    },
    {
      "inputs": [
        {
          "internalType": "address",
          "name": "walletAddress",
          "type": "address"
        }
      ],
      "name": "getServiceProviderStatus",
      "outputs": [
        {
          "internalType": "string",
          "name": "status",
          "type": "string"
        }
      ],
      "stateMutability": "view",
      "type": "function",
      "constant": true
    },
    {
      "inputs": [
        {
          "internalType": "address",
          "name": "walletAddress",
          "type": "address"
        },
        {
          "internalType": "string",
          "name": "status",
          "type": "string"
        },
        {
          "internalType": "uint256",
          "name": "start",
          "type": "uint256"
        },
        {
          "internalType": "uint256",
          "name": "end",
          "type": "uint256"
        }
      ],
      "name": "setServiceContractStatus",
      "outputs": [],
      "stateMutability": "nonpayable",
      "type": "function"
    },
    {
      "inputs": [
        {
          "internalType": "address",
          "name": "walletAddress",
          "type": "address"
        }
      ],
      "name": "getDueAmount",
      "outputs": [
        {
          "internalType": "uint256",
          "name": "",
          "type": "uint256"
        }
      ],
      "stateMutability": "view",
      "type": "function",
      "constant": true
    },
    {
      "inputs": [],
      "name": "balanceOf",
      "outputs": [
        {
          "internalType": "uint256",
          "name": "",
          "type": "uint256"
        }
      ],
      "stateMutability": "view",
      "type": "function",
      "constant": true
    }
  ],
  "bytecode": "0x60806040523480156200001157600080fd5b5060405162002b3f38038062002b3f83398181016040528101906200003791906200031c565b806000808201518160000160006101000a81548173ffffffffffffffffffffffffffffffffffffffff021916908373ffffffffffffffffffffffffffffffffffffffff1602179055506020820151816001019081620000979190620005b8565b50905050506200069f565b6000604051905090565b600080fd5b600080fd5b600080fd5b6000601f19601f8301169050919050565b7f4e487b7100000000000000000000000000000000000000000000000000000000600052604160045260246000fd5b6200010682620000bb565b810181811067ffffffffffffffff82111715620001285762000127620000cc565b5b80604052505050565b60006200013d620000a2565b90506200014b8282620000fb565b919050565b600080fd5b600073ffffffffffffffffffffffffffffffffffffffff82169050919050565b6000620001828262000155565b9050919050565b620001948162000175565b8114620001a057600080fd5b50565b600081519050620001b48162000189565b92915050565b600080fd5b600080fd5b600067ffffffffffffffff821115620001e257620001e1620000cc565b5b620001ed82620000bb565b9050602081019050919050565b60005b838110156200021a578082015181840152602081019050620001fd565b60008484015250505050565b60006200023d6200023784620001c4565b62000131565b9050828152602081018484840111156200025c576200025b620001bf565b5b62000269848285620001fa565b509392505050565b600082601f830112620002895762000288620001ba565b5b81516200029b84826020860162000226565b91505092915050565b600060408284031215620002bd57620002bc620000b6565b5b620002c9604062000131565b90506000620002db84828501620001a3565b600083015250602082015167ffffffffffffffff81111562000302576200030162000150565b5b620003108482850162000271565b60208301525092915050565b600060208284031215620003355762000334620000ac565b5b600082015167ffffffffffffffff811115620003565762000355620000b1565b5b6200036484828501620002a4565b91505092915050565b600081519050919050565b7f4e487b7100000000000000000000000000000000000000000000000000000000600052602260045260246000fd5b60006002820490506001821680620003c057607f821691505b602082108103620003d657620003d562000378565b5b50919050565b60008190508160005260206000209050919050565b60006020601f8301049050919050565b600082821b905092915050565b600060088302620004407fffffffffffffffffffffffffffffffffffffffffffffffffffffffffffffffff8262000401565b6200044c868362000401565b95508019841693508086168417925050509392505050565b6000819050919050565b6000819050919050565b600062000499620004936200048d8462000464565b6200046e565b62000464565b9050919050565b6000819050919050565b620004b58362000478565b620004cd620004c482620004a0565b8484546200040e565b825550505050565b600090565b620004e4620004d5565b620004f1818484620004aa565b505050565b5b8181101562000519576200050d600082620004da565b600181019050620004f7565b5050565b601f82111562000568576200053281620003dc565b6200053d84620003f1565b810160208510156200054d578190505b620005656200055c85620003f1565b830182620004f6565b50505b505050565b600082821c905092915050565b60006200058d600019846008026200056d565b1980831691505092915050565b6000620005a883836200057a565b9150826002028217905092915050565b620005c3826200036d565b67ffffffffffffffff811115620005df57620005de620000cc565b5b620005eb8254620003a7565b620005f88282856200051d565b600060209050601f8311600181146200063057600084156200061b578287015190505b6200062785826200059a565b86555062000697565b601f1984166200064086620003dc565b60005b828110156200066a5784890151825560018201915060208501945060208101905062000643565b868310156200068a578489015162000686601f8916826200057a565b8355505b6001600288020188555050505b505050505050565b61249080620006af6000396000f3fe6080604052600436106100c25760003560e01c8063722713f71161007f578063cf3c9c5b11610059578063cf3c9c5b146102b2578063e3d45364146102ef578063e569e5fb14610318578063e7b5fc5114610341576100c2565b8063722713f71461021c5780638cc01c8614610247578063ba2eb54114610289576100c2565b80630c98932a146100c757806320418a8d1461010d57806322b8673214610136578063419a8031146101735780635f6840ec146101b05780636a0f4dd0146101d9575b600080fd5b3480156100d357600080fd5b506100ee60048036038101906100e9919061180f565b61035d565b6040516101049a99989796959493929190611906565b60405180910390f35b34801561011957600080fd5b50610134600480360381019061012f91906119f1565b610699565b005b34801561014257600080fd5b5061015d6004803603810190610158919061180f565b6107b0565b60405161016a9190611a31565b60405180910390f35b34801561017f57600080fd5b5061019a6004803603810190610195919061180f565b610884565b6040516101a79190611a31565b60405180910390f35b3480156101bc57600080fd5b506101d760048036038101906101d29190611bb4565b610958565b005b3480156101e557600080fd5b5061020060048036038101906101fb919061180f565b610ac7565b6040516102139796959493929190611c3f565b60405180910390f35b34801561022857600080fd5b50610231610cc1565b60405161023e9190611cc3565b60405180910390f35b34801561025357600080fd5b5061026e6004803603810190610269919061180f565b610cc9565b60405161028096959493929190611cde565b60405180910390f35b34801561029557600080fd5b506102b060048036038101906102ab919061180f565b611012565b005b3480156102be57600080fd5b506102d960048036038101906102d4919061180f565b6111af565b6040516102e69190611cc3565b60405180910390f35b3480156102fb57600080fd5b5061031660048036038101906103119190611d54565b6111fb565b005b34801561032457600080fd5b5061033f600480360381019061033a9190611dd7565b6112df565b005b61035b60048036038101906103569190611e17565b61158e565b005b60026020528060005260406000206000915090508060000160009054906101000a900473ffffffffffffffffffffffffffffffffffffffff16908060010180546103a690611f6c565b80601f01602080910402602001604051908101604052809291908181526020018280546103d290611f6c565b801561041f5780601f106103f45761010080835404028352916020019161041f565b820191906000526020600020905b81548152906001019060200180831161040257829003601f168201915b50505050509080600201805461043490611f6c565b80601f016020809104026020016040519081016040528092919081815260200182805461046090611f6c565b80156104ad5780601f10610482576101008083540402835291602001916104ad565b820191906000526020600020905b81548152906001019060200180831161049057829003601f168201915b5050505050908060030180546104c290611f6c565b80601f01602080910402602001604051908101604052809291908181526020018280546104ee90611f6c565b801561053b5780601f106105105761010080835404028352916020019161053b565b820191906000526020600020905b81548152906001019060200180831161051e57829003601f168201915b5050505050908060040154908060050154908060060160009054906101000a900473ffffffffffffffffffffffffffffffffffffffff169080600701805461058290611f6c565b80601f01602080910402602001604051908101604052809291908181526020018280546105ae90611f6c565b80156105fb5780601f106105d0576101008083540402835291602001916105fb565b820191906000526020600020905b8154815290600101906020018083116105de57829003601f168201915b50505050509080600801805461061090611f6c565b80601f016020809104026020016040519081016040528092919081815260200182805461063c90611f6c565b80156106895780601f1061065e57610100808354040283529160200191610689565b820191906000526020600020905b81548152906001019060200180831161066c57829003601f168201915b505050505090806009015490508a565b6040518060400160405280600881526020017f696e69636961646f000000000000000000000000000000000000000000000000815250600360008473ffffffffffffffffffffffffffffffffffffffff1673ffffffffffffffffffffffffffffffffffffffff168152602001908152602001600020600401908161071d9190612149565b5042600360008473ffffffffffffffffffffffffffffffffffffffff1673ffffffffffffffffffffffffffffffffffffffff1681526020019081526020016000206005018190555080600360008473ffffffffffffffffffffffffffffffffffffffff1673ffffffffffffffffffffffffffffffffffffffff168152602001908152602001600020600601819055505050565b6060600360008373ffffffffffffffffffffffffffffffffffffffff1673ffffffffffffffffffffffffffffffffffffffff16815260200190815260200160002060040180546107ff90611f6c565b80601f016020809104026020016040519081016040528092919081815260200182805461082b90611f6c565b80156108785780601f1061084d57610100808354040283529160200191610878565b820191906000526020600020905b81548152906001019060200180831161085b57829003601f168201915b50505050509050919050565b6060600260008373ffffffffffffffffffffffffffffffffffffffff1673ffffffffffffffffffffffffffffffffffffffff16815260200190815260200160002060010180546108d390611f6c565b80601f01602080910402602001604051908101604052809291908181526020018280546108ff90611f6c565b801561094c5780601f106109215761010080835404028352916020019161094c565b820191906000526020600020905b81548152906001019060200180831161092f57829003601f168201915b50505050509050919050565b6040518060e001604052808473ffffffffffffffffffffffffffffffffffffffff168152602001600081526020018381526020018281526020016040518060400160405280600781526020017f70656e64696e67000000000000000000000000000000000000000000000000008152508152602001600081526020016000815250600360008573ffffffffffffffffffffffffffffffffffffffff1673ffffffffffffffffffffffffffffffffffffffff16815260200190815260200160002060008201518160000160006101000a81548173ffffffffffffffffffffffffffffffffffffffff021916908373ffffffffffffffffffffffffffffffffffffffff160217905550602082015181600101556040820151816002019081610a7e9190612149565b506060820151816003019081610a949190612149565b506080820151816004019081610aaa9190612149565b5060a0820151816005015560c08201518160060155905050505050565b60036020528060005260406000206000915090508060000160009054906101000a900473ffffffffffffffffffffffffffffffffffffffff1690806001015490806002018054610b1690611f6c565b80601f0160208091040260200160405190810160405280929190818152602001828054610b4290611f6c565b8015610b8f5780601f10610b6457610100808354040283529160200191610b8f565b820191906000526020600020905b815481529060010190602001808311610b7257829003601f168201915b505050505090806003018054610ba490611f6c565b80601f0160208091040260200160405190810160405280929190818152602001828054610bd090611f6c565b8015610c1d5780601f10610bf257610100808354040283529160200191610c1d565b820191906000526020600020905b815481529060010190602001808311610c0057829003601f168201915b505050505090806004018054610c3290611f6c565b80601f0160208091040260200160405190810160405280929190818152602001828054610c5e90611f6c565b8015610cab5780601f10610c8057610100808354040283529160200191610cab565b820191906000526020600020905b815481529060010190602001808311610c8e57829003601f168201915b5050505050908060050154908060060154905087565b600047905090565b60606000606080600080600360008873ffffffffffffffffffffffffffffffffffffffff1673ffffffffffffffffffffffffffffffffffffffff1681526020019081526020016000206002018054610d2090611f6c565b80601f0160208091040260200160405190810160405280929190818152602001828054610d4c90611f6c565b8015610d995780601f10610d6e57610100808354040283529160200191610d99565b820191906000526020600020905b815481529060010190602001808311610d7c57829003601f168201915b50505050509550600360008873ffffffffffffffffffffffffffffffffffffffff1673ffffffffffffffffffffffffffffffffffffffff168152602001908152602001600020600101549450600360008873ffffffffffffffffffffffffffffffffffffffff1673ffffffffffffffffffffffffffffffffffffffff1681526020019081526020016000206003018054610e3290611f6c565b80601f0160208091040260200160405190810160405280929190818152602001828054610e5e90611f6c565b8015610eab5780601f10610e8057610100808354040283529160200191610eab565b820191906000526020600020905b815481529060010190602001808311610e8e57829003601f168201915b50505050509350600360008873ffffffffffffffffffffffffffffffffffffffff1673ffffffffffffffffffffffffffffffffffffffff1681526020019081526020016000206004018054610eff90611f6c565b80601f0160208091040260200160405190810160405280929190818152602001828054610f2b90611f6c565b8015610f785780601f10610f4d57610100808354040283529160200191610f78565b820191906000526020600020905b815481529060010190602001808311610f5b57829003601f168201915b50505050509250600360008873ffffffffffffffffffffffffffffffffffffffff1673ffffffffffffffffffffffffffffffffffffffff168152602001908152602001600020600501549150600360008873ffffffffffffffffffffffffffffffffffffffff1673ffffffffffffffffffffffffffffffffffffffff16815260200190815260200160002060060154905091939550919395565b60405160200161102190612272565b60405160208183030381529060405280519060200120600260008373ffffffffffffffffffffffffffffffffffffffff1673ffffffffffffffffffffffffffffffffffffffff168152602001908152602001600020600101604051602001611089919061230a565b60405160208183030381529060405280519060200120146110df576040517f08c379a00000000000000000000000000000000000000000000000000000000081526004016110d69061236d565b60405180910390fd5b6040516020016110ee906123d9565b60405160208183030381529060405280519060200120600260008373ffffffffffffffffffffffffffffffffffffffff1673ffffffffffffffffffffffffffffffffffffffff168152602001908152602001600020600101604051602001611156919061230a565b60405160208183030381529060405280519060200120146111ac576040517f08c379a00000000000000000000000000000000000000000000000000000000081526004016111a39061243a565b60405180910390fd5b50565b6000600260008373ffffffffffffffffffffffffffffffffffffffff1673ffffffffffffffffffffffffffffffffffffffff168152602001908152602001600020600901549050919050565b82600260008673ffffffffffffffffffffffffffffffffffffffff1673ffffffffffffffffffffffffffffffffffffffff168152602001908152602001600020600101908161124a9190612149565b5081600260008673ffffffffffffffffffffffffffffffffffffffff1673ffffffffffffffffffffffffffffffffffffffff1681526020019081526020016000206004018190555080600260008673ffffffffffffffffffffffffffffffffffffffff1673ffffffffffffffffffffffffffffffffffffffff1681526020019081526020016000206005018190555050505050565b6040518060400160405280600a81526020017f66696e616c697a61646f00000000000000000000000000000000000000000000815250600360008373ffffffffffffffffffffffffffffffffffffffff1673ffffffffffffffffffffffffffffffffffffffff16815260200190815260200160002060040190816113639190612149565b5042600360008373ffffffffffffffffffffffffffffffffffffffff1673ffffffffffffffffffffffffffffffffffffffff16815260200190815260200160002060060181905550600260008373ffffffffffffffffffffffffffffffffffffffff1673ffffffffffffffffffffffffffffffffffffffff16815260200190815260200160002060090154600360008373ffffffffffffffffffffffffffffffffffffffff1673ffffffffffffffffffffffffffffffffffffffff168152602001908152602001600020600101819055508073ffffffffffffffffffffffffffffffffffffffff166108fc600260008573ffffffffffffffffffffffffffffffffffffffff1673ffffffffffffffffffffffffffffffffffffffff168152602001908152602001600020600901549081150290604051600060405180830381858888f193505050501580156114bc573d6000803e3d6000fd5b506000600260008473ffffffffffffffffffffffffffffffffffffffff1673ffffffffffffffffffffffffffffffffffffffff168152602001908152602001600020600901819055506040518060400160405280600981526020017f65786563757461646f0000000000000000000000000000000000000000000000815250600260008473ffffffffffffffffffffffffffffffffffffffff1673ffffffffffffffffffffffffffffffffffffffff16815260200190815260200160002060010190816115899190612149565b505050565b6040518061014001604052808973ffffffffffffffffffffffffffffffffffffffff1681526020016040518060400160405280600581526020017f617469766f00000000000000000000000000000000000000000000000000000081525081526020018881526020018781526020018681526020018581526020018473ffffffffffffffffffffffffffffffffffffffff16815260200183815260200182815260200134815250600260008a73ffffffffffffffffffffffffffffffffffffffff1673ffffffffffffffffffffffffffffffffffffffff16815260200190815260200160002060008201518160000160006101000a81548173ffffffffffffffffffffffffffffffffffffffff021916908373ffffffffffffffffffffffffffffffffffffffff16021790555060208201518160010190816116d09190612149565b5060408201518160020190816116e69190612149565b5060608201518160030190816116fc9190612149565b506080820151816004015560a0820151816005015560c08201518160060160006101000a81548173ffffffffffffffffffffffffffffffffffffffff021916908373ffffffffffffffffffffffffffffffffffffffff16021790555060e082015181600701908161176d9190612149565b506101008201518160080190816117849190612149565b5061012082015181600901559050505050505050505050565b6000604051905090565b600080fd5b600080fd5b600073ffffffffffffffffffffffffffffffffffffffff82169050919050565b60006117dc826117b1565b9050919050565b6117ec816117d1565b81146117f757600080fd5b50565b600081359050611809816117e3565b92915050565b600060208284031215611825576118246117a7565b5b6000611833848285016117fa565b91505092915050565b6000611847826117b1565b9050919050565b6118578161183c565b82525050565b600081519050919050565b600082825260208201905092915050565b60005b8381101561189757808201518184015260208101905061187c565b60008484015250505050565b6000601f19601f8301169050919050565b60006118bf8261185d565b6118c98185611868565b93506118d9818560208601611879565b6118e2816118a3565b840191505092915050565b6000819050919050565b611900816118ed565b82525050565b60006101408201905061191c600083018d61184e565b818103602083015261192e818c6118b4565b90508181036040830152611942818b6118b4565b90508181036060830152611956818a6118b4565b905061196560808301896118f7565b61197260a08301886118f7565b61197f60c083018761184e565b81810360e083015261199181866118b4565b90508181036101008301526119a681856118b4565b90506119b66101208301846118f7565b9b9a5050505050505050505050565b6119ce816118ed565b81146119d957600080fd5b50565b6000813590506119eb816119c5565b92915050565b60008060408385031215611a0857611a076117a7565b5b6000611a16858286016117fa565b9250506020611a27858286016119dc565b9150509250929050565b60006020820190508181036000830152611a4b81846118b4565b905092915050565b611a5c8161183c565b8114611a6757600080fd5b50565b600081359050611a7981611a53565b92915050565b600080fd5b600080fd5b7f4e487b7100000000000000000000000000000000000000000000000000000000600052604160045260246000fd5b611ac1826118a3565b810181811067ffffffffffffffff82111715611ae057611adf611a89565b5b80604052505050565b6000611af361179d565b9050611aff8282611ab8565b919050565b600067ffffffffffffffff821115611b1f57611b1e611a89565b5b611b28826118a3565b9050602081019050919050565b82818337600083830152505050565b6000611b57611b5284611b04565b611ae9565b905082815260208101848484011115611b7357611b72611a84565b5b611b7e848285611b35565b509392505050565b600082601f830112611b9b57611b9a611a7f565b5b8135611bab848260208601611b44565b91505092915050565b600080600060608486031215611bcd57611bcc6117a7565b5b6000611bdb86828701611a6a565b935050602084013567ffffffffffffffff811115611bfc57611bfb6117ac565b5b611c0886828701611b86565b925050604084013567ffffffffffffffff811115611c2957611c286117ac565b5b611c3586828701611b86565b9150509250925092565b600060e082019050611c54600083018a61184e565b611c6160208301896118f7565b8181036040830152611c7381886118b4565b90508181036060830152611c8781876118b4565b90508181036080830152611c9b81866118b4565b9050611caa60a08301856118f7565b611cb760c08301846118f7565b98975050505050505050565b6000602082019050611cd860008301846118f7565b92915050565b600060c0820190508181036000830152611cf881896118b4565b9050611d0760208301886118f7565b8181036040830152611d1981876118b4565b90508181036060830152611d2d81866118b4565b9050611d3c60808301856118f7565b611d4960a08301846118f7565b979650505050505050565b60008060008060808587031215611d6e57611d6d6117a7565b5b6000611d7c878288016117fa565b945050602085013567ffffffffffffffff811115611d9d57611d9c6117ac565b5b611da987828801611b86565b9350506040611dba878288016119dc565b9250506060611dcb878288016119dc565b91505092959194509250565b60008060408385031215611dee57611ded6117a7565b5b6000611dfc85828601611a6a565b9250506020611e0d85828601611a6a565b9150509250929050565b600080600080600080600080610100898b031215611e3857611e376117a7565b5b6000611e468b828c01611a6a565b985050602089013567ffffffffffffffff811115611e6757611e666117ac565b5b611e738b828c01611b86565b975050604089013567ffffffffffffffff811115611e9457611e936117ac565b5b611ea08b828c01611b86565b9650506060611eb18b828c016119dc565b9550506080611ec28b828c016119dc565b94505060a0611ed38b828c01611a6a565b93505060c089013567ffffffffffffffff811115611ef457611ef36117ac565b5b611f008b828c01611b86565b92505060e089013567ffffffffffffffff811115611f2157611f206117ac565b5b611f2d8b828c01611b86565b9150509295985092959890939650565b7f4e487b7100000000000000000000000000000000000000000000000000000000600052602260045260246000fd5b60006002820490506001821680611f8457607f821691505b602082108103611f9757611f96611f3d565b5b50919050565b60008190508160005260206000209050919050565b60006020601f8301049050919050565b600082821b905092915050565b600060088302611fff7fffffffffffffffffffffffffffffffffffffffffffffffffffffffffffffffff82611fc2565b6120098683611fc2565b95508019841693508086168417925050509392505050565b6000819050919050565b600061204661204161203c846118ed565b612021565b6118ed565b9050919050565b6000819050919050565b6120608361202b565b61207461206c8261204d565b848454611fcf565b825550505050565b600090565b61208961207c565b612094818484612057565b505050565b5b818110156120b8576120ad600082612081565b60018101905061209a565b5050565b601f8211156120fd576120ce81611f9d565b6120d784611fb2565b810160208510156120e6578190505b6120fa6120f285611fb2565b830182612099565b50505b505050565b600082821c905092915050565b600061212060001984600802612102565b1980831691505092915050565b6000612139838361210f565b9150826002028217905092915050565b6121528261185d565b67ffffffffffffffff81111561216b5761216a611a89565b5b6121758254611f6c565b6121808282856120bc565b600060209050601f8311600181146121b357600084156121a1578287015190505b6121ab858261212d565b865550612213565b601f1984166121c186611f9d565b60005b828110156121e9578489015182556001820191506020850194506020810190506121c4565b868310156122065784890151612202601f89168261210f565b8355505b6001600288020188555050505b505050505050565b600081905092915050565b7f617469766f000000000000000000000000000000000000000000000000000000600082015250565b600061225c60058361221b565b915061226782612226565b600582019050919050565b600061227d8261224f565b9150819050919050565b6000815461229481611f6c565b61229e818661221b565b945060018216600081146122b957600181146122ce57612301565b60ff1983168652811515820286019350612301565b6122d785611f9d565b60005b838110156122f9578154818901526001820191506020810190506122da565b838801955050505b50505092915050565b60006123168284612287565b915081905092915050565b7f4f20636f6e747261746f20736520656e636f6e74726120657870697261646f2e600082015250565b6000612357602083611868565b915061236282612321565b602082019050919050565b600060208201905081810360008301526123868161234a565b9050919050565b7f696e617469766f00000000000000000000000000000000000000000000000000600082015250565b60006123c360078361221b565b91506123ce8261238d565b600782019050919050565b60006123e4826123b6565b9150819050919050565b7f4f20636f6e747261746f20736520656e636f6e74726120617469766f2e000000600082015250565b6000612424601d83611868565b915061242f826123ee565b602082019050919050565b6000602082019050818103600083015261245381612417565b905091905056fea26469706673582212203f76caa9c08141e8d05b703e8b12028942d042650e95434758fb7f4002fdf85964736f6c63430008110033",
  "immutableReferences": {},
  "source": "// SPDX-License-Identifier: MIT\n\npragma solidity ^0.8.17;\n\ncontract TokenBRServiceProviderChain {\n    \n    struct Government {\n        address payable walletAddress; \n        string cnpj;\n    }\n\n    Government contractOwner;\n\n    constructor(Government memory contractOwner_) {\n        contractOwner = contractOwner_;  // The government who deploys the contract will be the owner\n    }\n\n    struct ServiceContract {\n        address payable walletAddress;\n        string status;\n        string name;\n        string cnpjProvider;\n        uint start;\n        uint end;\n        address payable bankEscrowAccount; \n        string bankEscrowAccountCnpj;\n        string bankEscrowAccountName;\n        uint bankEscrowAccountBalance;\n    }\n\n    mapping (address => ServiceContract) public serviceContracts; \n\n    struct ServiceProvider {\n        address payable walletAddress; \n        uint balance;\n        string cnpj;\n        string companyName;\n        string status;\n        uint start;                    \n        uint end;\n    }\n\n    mapping (address => ServiceProvider) public serviceProviders; \n\n    function addContract( // add funds to contract owner (government) - at the same time it adds funds to service contract\n        address payable walletAddress, \n        string memory name, \n        string memory cnpjProvider, \n        uint start,                         \n        uint end, \n        address payable bankEscrowAccount,\n        string memory bankEscrowAccountCnpj,\n        string memory bankEscrowAccountName\n    ) \n        payable public \n    {\n        serviceContracts[walletAddress] = \n            ServiceContract(\n                walletAddress, \n                'ativo', \n                name, \n                cnpjProvider, \n                start, \n                end,\n                bankEscrowAccount,\n                bankEscrowAccountCnpj,\n                bankEscrowAccountName,\n                msg.value\n            ); \n    }\n\n    // It adds the service provider, which is the company that is providing services to the government in Brazil\n    function addServiceProvider(address payable walletAddress, string memory cnpj, string memory companyName) public {\n        serviceProviders[walletAddress] = ServiceProvider(walletAddress, 0, cnpj, companyName, 'pending', 0, 0);\n    }\n\n    function getServiceProvider(address walletAddress) public view returns(string memory cnpj, uint balance,string memory companyName, string memory status, uint start, uint end) {\n        cnpj = serviceProviders[walletAddress].cnpj;\n        balance = serviceProviders[walletAddress].balance;\n        companyName = serviceProviders[walletAddress].companyName;\n        status = serviceProviders[walletAddress].status;\n        start = serviceProviders[walletAddress].start;\n        end = serviceProviders[walletAddress].end;\n    }\n\n    function initiateService(address serviceProviderAddress, uint estimatedEndDate) public {\n        serviceProviders[serviceProviderAddress].status = 'iniciado';\n        serviceProviders[serviceProviderAddress].start = block.timestamp;\n        serviceProviders[serviceProviderAddress].end = estimatedEndDate; // Unix timestamp format\n    }\n\n    // Three status avaialable for a service contract: Pendente, Iniciado, Finalizado. The smart contract must transfer \n    // the funds from the contract bank escrow account to the service provider account\n    function finishService(address payable contractWalletAddress, address payable serviceProviderAddress) public {\n        serviceProviders[serviceProviderAddress].status = 'finalizado';\n        serviceProviders[serviceProviderAddress].end = block.timestamp;\n        serviceProviders[serviceProviderAddress].balance = serviceContracts[contractWalletAddress].bankEscrowAccountBalance;\n        serviceProviderAddress.transfer(serviceContracts[contractWalletAddress].bankEscrowAccountBalance);\n        serviceContracts[contractWalletAddress].bankEscrowAccountBalance = 0;\n        serviceContracts[contractWalletAddress].status = 'executado';\n    }\n\n    function isExpired(address walletAddress) public view {\n        require(keccak256(abi.encodePacked(serviceContracts[walletAddress].status)) == keccak256(abi.encodePacked(\"ativo\")), \n            \"O contrato se encontra expirado.\");\n        require(keccak256(abi.encodePacked(serviceContracts[walletAddress].status)) == keccak256(abi.encodePacked(\"inativo\")), \n            \"O contrato se encontra ativo.\");\n    }\n\n    function getServiceContractStatus(address walletAddress) public view returns(string memory status) {\n        status = serviceContracts[walletAddress].status;\n    }\n\n    function getServiceProviderStatus(address walletAddress) public view returns(string memory status) {\n        status = serviceProviders[walletAddress].status;\n    }\n\n    function setServiceContractStatus(address walletAddress, string memory status, uint start, uint end) public {\n        serviceContracts[walletAddress].status = status;\n        serviceContracts[walletAddress].start = start;\n        serviceContracts[walletAddress].end = end;\n    }\n\n    function getDueAmount(address walletAddress) public view returns(uint) {\n        return serviceContracts[walletAddress].bankEscrowAccountBalance;\n    }\n\n    function balanceOf() view public returns(uint) {\n        return address(this).balance; \n    }\n}",
  "sourcePath": "/home/roberto/DAppBikeRental/bike-rental-app-web3/celo-government-truffle/contracts/TokenBRServiceProviderChain.sol",
  "compiler": {
    "name": "solc",
    "version": "0.8.17+commit.8df45f5f.Emscripten.clang"
  },
  "schemaVersion": "3.4.11",
  "updatedAt": "2022-12-11T22:34:58.414Z",
  "networkType": "ethereum",
  "devdoc": {
    "kind": "dev",
    "methods": {},
    "version": 1
  },
  "userdoc": {
    "kind": "user",
    "methods": {},
    "version": 1
  }
}